{
  "_format": "hh-sol-artifact-1",
  "contractName": "MyEpicNFT",
  "sourceName": "contracts/MyEpicNFT.sol",
  "abi": [
    {
      "inputs": [],
      "stateMutability": "nonpayable",
      "type": "constructor"
    },
    {
      "anonymous": false,
      "inputs": [
        {
          "indexed": true,
          "internalType": "address",
          "name": "owner",
          "type": "address"
        },
        {
          "indexed": true,
          "internalType": "address",
          "name": "approved",
          "type": "address"
        },
        {
          "indexed": true,
          "internalType": "uint256",
          "name": "tokenId",
          "type": "uint256"
        }
      ],
      "name": "Approval",
      "type": "event"
    },
    {
      "anonymous": false,
      "inputs": [
        {
          "indexed": true,
          "internalType": "address",
          "name": "owner",
          "type": "address"
        },
        {
          "indexed": true,
          "internalType": "address",
          "name": "operator",
          "type": "address"
        },
        {
          "indexed": false,
          "internalType": "bool",
          "name": "approved",
          "type": "bool"
        }
      ],
      "name": "ApprovalForAll",
      "type": "event"
    },
    {
      "anonymous": false,
      "inputs": [
        {
          "indexed": false,
          "internalType": "address",
          "name": "sender",
          "type": "address"
        },
        {
          "indexed": false,
          "internalType": "uint256",
          "name": "tokenId",
          "type": "uint256"
        }
      ],
      "name": "NewEpicNFTMinted",
      "type": "event"
    },
    {
      "anonymous": false,
      "inputs": [
        {
          "indexed": true,
          "internalType": "address",
          "name": "from",
          "type": "address"
        },
        {
          "indexed": true,
          "internalType": "address",
          "name": "to",
          "type": "address"
        },
        {
          "indexed": true,
          "internalType": "uint256",
          "name": "tokenId",
          "type": "uint256"
        }
      ],
      "name": "Transfer",
      "type": "event"
    },
    {
      "inputs": [
        {
          "internalType": "address",
          "name": "to",
          "type": "address"
        },
        {
          "internalType": "uint256",
          "name": "tokenId",
          "type": "uint256"
        }
      ],
      "name": "approve",
      "outputs": [],
      "stateMutability": "nonpayable",
      "type": "function"
    },
    {
      "inputs": [
        {
          "internalType": "address",
          "name": "owner",
          "type": "address"
        }
      ],
      "name": "balanceOf",
      "outputs": [
        {
          "internalType": "uint256",
          "name": "",
          "type": "uint256"
        }
      ],
      "stateMutability": "view",
      "type": "function"
    },
    {
      "inputs": [
        {
          "internalType": "uint256",
          "name": "tokenId",
          "type": "uint256"
        }
      ],
      "name": "getApproved",
      "outputs": [
        {
          "internalType": "address",
          "name": "",
          "type": "address"
        }
      ],
      "stateMutability": "view",
      "type": "function"
    },
    {
      "inputs": [],
      "name": "getMintLimit",
      "outputs": [
        {
          "internalType": "uint256",
          "name": "",
          "type": "uint256"
        }
      ],
      "stateMutability": "pure",
      "type": "function"
    },
    {
      "inputs": [],
      "name": "getTotalNFTsMintedSoFar",
      "outputs": [
        {
          "internalType": "uint256",
          "name": "",
          "type": "uint256"
        }
      ],
      "stateMutability": "view",
      "type": "function"
    },
    {
      "inputs": [
        {
          "internalType": "address",
          "name": "owner",
          "type": "address"
        },
        {
          "internalType": "address",
          "name": "operator",
          "type": "address"
        }
      ],
      "name": "isApprovedForAll",
      "outputs": [
        {
          "internalType": "bool",
          "name": "",
          "type": "bool"
        }
      ],
      "stateMutability": "view",
      "type": "function"
    },
    {
      "inputs": [],
      "name": "makeAnEpicNFT",
      "outputs": [],
      "stateMutability": "nonpayable",
      "type": "function"
    },
    {
      "inputs": [],
      "name": "name",
      "outputs": [
        {
          "internalType": "string",
          "name": "",
          "type": "string"
        }
      ],
      "stateMutability": "view",
      "type": "function"
    },
    {
      "inputs": [
        {
          "internalType": "uint256",
          "name": "tokenId",
          "type": "uint256"
        }
      ],
      "name": "ownerOf",
      "outputs": [
        {
          "internalType": "address",
          "name": "",
          "type": "address"
        }
      ],
      "stateMutability": "view",
      "type": "function"
    },
    {
      "inputs": [
        {
          "internalType": "uint256",
          "name": "tokenId",
          "type": "uint256"
        }
      ],
      "name": "pickRandomColor",
      "outputs": [
        {
          "internalType": "string",
          "name": "",
          "type": "string"
        }
      ],
      "stateMutability": "view",
      "type": "function"
    },
    {
      "inputs": [
        {
          "internalType": "uint256",
          "name": "tokenId",
          "type": "uint256"
        }
      ],
      "name": "pickRandomFirstWord",
      "outputs": [
        {
          "internalType": "string",
          "name": "",
          "type": "string"
        }
      ],
      "stateMutability": "view",
      "type": "function"
    },
    {
      "inputs": [
        {
          "internalType": "uint256",
          "name": "tokenId",
          "type": "uint256"
        }
      ],
      "name": "pickRandomSecondWord",
      "outputs": [
        {
          "internalType": "string",
          "name": "",
          "type": "string"
        }
      ],
      "stateMutability": "view",
      "type": "function"
    },
    {
      "inputs": [
        {
          "internalType": "uint256",
          "name": "tokenId",
          "type": "uint256"
        }
      ],
      "name": "pickRandomThirdWord",
      "outputs": [
        {
          "internalType": "string",
          "name": "",
          "type": "string"
        }
      ],
      "stateMutability": "view",
      "type": "function"
    },
    {
      "inputs": [
        {
          "internalType": "address",
          "name": "from",
          "type": "address"
        },
        {
          "internalType": "address",
          "name": "to",
          "type": "address"
        },
        {
          "internalType": "uint256",
          "name": "tokenId",
          "type": "uint256"
        }
      ],
      "name": "safeTransferFrom",
      "outputs": [],
      "stateMutability": "nonpayable",
      "type": "function"
    },
    {
      "inputs": [
        {
          "internalType": "address",
          "name": "from",
          "type": "address"
        },
        {
          "internalType": "address",
          "name": "to",
          "type": "address"
        },
        {
          "internalType": "uint256",
          "name": "tokenId",
          "type": "uint256"
        },
        {
          "internalType": "bytes",
          "name": "_data",
          "type": "bytes"
        }
      ],
      "name": "safeTransferFrom",
      "outputs": [],
      "stateMutability": "nonpayable",
      "type": "function"
    },
    {
      "inputs": [
        {
          "internalType": "address",
          "name": "operator",
          "type": "address"
        },
        {
          "internalType": "bool",
          "name": "approved",
          "type": "bool"
        }
      ],
      "name": "setApprovalForAll",
      "outputs": [],
      "stateMutability": "nonpayable",
      "type": "function"
    },
    {
      "inputs": [
        {
          "internalType": "bytes4",
          "name": "interfaceId",
          "type": "bytes4"
        }
      ],
      "name": "supportsInterface",
      "outputs": [
        {
          "internalType": "bool",
          "name": "",
          "type": "bool"
        }
      ],
      "stateMutability": "view",
      "type": "function"
    },
    {
      "inputs": [],
      "name": "symbol",
      "outputs": [
        {
          "internalType": "string",
          "name": "",
          "type": "string"
        }
      ],
      "stateMutability": "view",
      "type": "function"
    },
    {
      "inputs": [
        {
          "internalType": "uint256",
          "name": "tokenId",
          "type": "uint256"
        }
      ],
      "name": "tokenURI",
      "outputs": [
        {
          "internalType": "string",
          "name": "",
          "type": "string"
        }
      ],
      "stateMutability": "view",
      "type": "function"
    },
    {
      "inputs": [
        {
          "internalType": "address",
          "name": "from",
          "type": "address"
        },
        {
          "internalType": "address",
          "name": "to",
          "type": "address"
        },
        {
          "internalType": "uint256",
          "name": "tokenId",
          "type": "uint256"
        }
      ],
      "name": "transferFrom",
      "outputs": [],
      "stateMutability": "nonpayable",
      "type": "function"
    }
  ],
  "bytecode": "0x608060405260405180610100016040528060d3815260200162004f6160d39139600890805190602001906200003692919062000ed8565b506040518060800160405280605681526020016200503460569139600990805190602001906200006892919062000ed8565b5060405180610160016040528061012f815260200162004e3261012f9139600a90805190602001906200009d92919062000ed8565b50604051806101c001604052806040518060400160405280600781526020017f466967687465720000000000000000000000000000000000000000000000000081525081526020016040518060400160405280600481526020017f4d6167650000000000000000000000000000000000000000000000000000000081525081526020016040518060400160405280600581526020017f526f67756500000000000000000000000000000000000000000000000000000081525081526020016040518060400160405280600781526020017f5363686f6c61720000000000000000000000000000000000000000000000000081525081526020016040518060400160405280600b81526020017f42656173746d617374657200000000000000000000000000000000000000000081525081526020016040518060400160405280600981526020017f4265727365726b6572000000000000000000000000000000000000000000000081525081526020016040518060400160405280600b81526020017f447261636f6d616e63657200000000000000000000000000000000000000000081525081526020016040518060400160405280600c81526020017f447261676f6e736c61796572000000000000000000000000000000000000000081525081526020016040518060400160405280600681526020017f4b6e69676874000000000000000000000000000000000000000000000000000081525081526020016040518060400160405280600681526020017f417274697374000000000000000000000000000000000000000000000000000081525081526020016040518060400160405280600581526020017f4e696e6a6100000000000000000000000000000000000000000000000000000081525081526020016040518060400160405280600681526020017f506972617465000000000000000000000000000000000000000000000000000081525081526020016040518060400160405280600681526020017f536861646f77000000000000000000000000000000000000000000000000000081525081526020016040518060400160405280600681526020017f57697a6172640000000000000000000000000000000000000000000000000000815250815250600b90600e620003f492919062000f69565b506040518061020001604052806040518060400160405280600381526020017f417865000000000000000000000000000000000000000000000000000000000081525081526020016040518060400160405280600681526020017f48616d6d6572000000000000000000000000000000000000000000000000000081525081526020016040518060400160405280600781526020017f48616e646178650000000000000000000000000000000000000000000000000081525081526020016040518060400160405280600581526020017f4b756b726900000000000000000000000000000000000000000000000000000081525081526020016040518060400160405280600481526020017f5069636b0000000000000000000000000000000000000000000000000000000081525081526020016040518060400160405280600381526020017f536170000000000000000000000000000000000000000000000000000000000081525081526020016040518060400160405280600681526020017f536869656c64000000000000000000000000000000000000000000000000000081525081526020016040518060400160405280600681526020017f5370696b6564000000000000000000000000000000000000000000000000000081525081526020016040518060400160405280600581526020017f53776f726400000000000000000000000000000000000000000000000000000081525081526020016040518060400160405280600981526020017f426174746c65617865000000000000000000000000000000000000000000000081525081526020016040518060400160405280600581526020017f466c61696c00000000000000000000000000000000000000000000000000000081525081526020016040518060400160405280600981526020017f4c6f6e6773776f7264000000000000000000000000000000000000000000000081525081526020016040518060400160405280600481526020017f5069636b0000000000000000000000000000000000000000000000000000000081525081526020016040518060400160405280600881526020017f5363696d6974617200000000000000000000000000000000000000000000000081525081526020016040518060400160405280600781526020017f54726964656e740000000000000000000000000000000000000000000000000081525081526020016040518060400160405280600981526020017f57617268616d6d65720000000000000000000000000000000000000000000000815250815250600c906010620007c192919062000fd0565b50604051806101e001604052806040518060400160405280600481526020017f417175610000000000000000000000000000000000000000000000000000000081525081526020016040518060400160405280600a81526020017f417175616d6172696e650000000000000000000000000000000000000000000081525081526020016040518060400160405280600581526020017f417a75726500000000000000000000000000000000000000000000000000000081525081526020016040518060400160405280600581526020017f426569676500000000000000000000000000000000000000000000000000000081525081526020016040518060400160405280600681526020017f4f72616e6765000000000000000000000000000000000000000000000000000081525081526020016040518060400160405280600681526020017f426973717565000000000000000000000000000000000000000000000000000081525081526020016040518060400160405280600581526020017f426c61636b00000000000000000000000000000000000000000000000000000081525081526020016040518060400160405280600481526020017f426c75650000000000000000000000000000000000000000000000000000000081525081526020016040518060400160405280600581526020017f42726f776e00000000000000000000000000000000000000000000000000000081525081526020016040518060400160405280600a81526020017f436861727472657573650000000000000000000000000000000000000000000081525081526020016040518060400160405280600981526020017f43686f636f6c617465000000000000000000000000000000000000000000000081525081526020016040518060400160405280600681526020017f496e6469676f000000000000000000000000000000000000000000000000000081525081526020016040518060400160405280600581526020017f49766f727900000000000000000000000000000000000000000000000000000081525081526020016040518060400160405280600581526020017f436f72616c00000000000000000000000000000000000000000000000000000081525081526020016040518060400160405280600881526020017f436f726e73696c6b000000000000000000000000000000000000000000000000815250815250600d90600f62000b5392919062001037565b506040518060e001604052806040518060400160405280600781526020017f234643413541350000000000000000000000000000000000000000000000000081525081526020016040518060400160405280600781526020017f234644453638410000000000000000000000000000000000000000000000000081525081526020016040518060400160405280600781526020017f234137463344300000000000000000000000000000000000000000000000000081525081526020016040518060400160405280600781526020017f234246444246450000000000000000000000000000000000000000000000000081525081526020016040518060400160405280600781526020017f234337443246450000000000000000000000000000000000000000000000000081525081526020016040518060400160405280600781526020017f234444443646450000000000000000000000000000000000000000000000000081525081526020016040518060400160405280600781526020017f2346424346453800000000000000000000000000000000000000000000000000815250815250600e90600762000d0c9291906200109e565b5034801562000d1a57600080fd5b506040518060400160405280600981526020017f5371756172654e465400000000000000000000000000000000000000000000008152506040518060400160405280600681526020017f5351554152450000000000000000000000000000000000000000000000000000815250816000908051906020019062000d9f92919062000ed8565b50806001908051906020019062000db892919062000ed8565b50505062000e066040518060400160405280601e81526020017f54686973206973206d79204e465420636f6e74726163742e20576f616821000081525062000e0c60201b620014481760201c565b620012bf565b62000eac8160405160240162000e239190620011d3565b6040516020818303038152906040527f41304fac000000000000000000000000000000000000000000000000000000007bffffffffffffffffffffffffffffffffffffffffffffffffffffffff19166020820180517bffffffffffffffffffffffffffffffffffffffffffffffffffffffff838183161783525050505062000eaf60201b60201c565b50565b60008151905060006a636f6e736f6c652e6c6f679050602083016000808483855afa5050505050565b82805462000ee69062001249565b90600052602060002090601f01602090048101928262000f0a576000855562000f56565b82601f1062000f2557805160ff191683800117855562000f56565b8280016001018555821562000f56579182015b8281111562000f5557825182559160200191906001019062000f38565b5b50905062000f65919062001105565b5090565b82805482825590600052602060002090810192821562000fbd579160200282015b8281111562000fbc57825182908051906020019062000fab92919062000ed8565b509160200191906001019062000f8a565b5b50905062000fcc919062001124565b5090565b82805482825590600052602060002090810192821562001024579160200282015b82811115620010235782518290805190602001906200101292919062000ed8565b509160200191906001019062000ff1565b5b50905062001033919062001124565b5090565b8280548282559060005260206000209081019282156200108b579160200282015b828111156200108a5782518290805190602001906200107992919062000ed8565b509160200191906001019062001058565b5b5090506200109a919062001124565b5090565b828054828255906000526020600020908101928215620010f2579160200282015b82811115620010f1578251829080519060200190620010e092919062000ed8565b5091602001919060010190620010bf565b5b50905062001101919062001124565b5090565b5b808211156200112057600081600090555060010162001106565b5090565b5b808211156200114857600081816200113e91906200114c565b5060010162001125565b5090565b5080546200115a9062001249565b6000825580601f106200116e57506200118f565b601f0160209004906000526020600020908101906200118e919062001105565b5b50565b60006200119f82620011f7565b620011ab818562001202565b9350620011bd81856020860162001213565b620011c881620012ae565b840191505092915050565b60006020820190508181036000830152620011ef818462001192565b905092915050565b600081519050919050565b600082825260208201905092915050565b60005b838110156200123357808201518184015260208101905062001216565b8381111562001243576000848401525b50505050565b600060028204905060018216806200126257607f821691505b602082108114156200127957620012786200127f565b5b50919050565b7f4e487b7100000000000000000000000000000000000000000000000000000000600052602260045260246000fd5b6000601f19601f8301169050919050565b613b6380620012cf6000396000f3fe608060405234801561001057600080fd5b506004361061012c5760003560e01c80636352211e116100ad578063b88d4fde11610071578063b88d4fde14610369578063c575757a14610385578063c87b56dd146103b5578063de9d132f146103e5578063e985e9c5146103ef5761012c565b80636352211e1461029f57806370a08231146102cf57806395d89b41146102ff578063a22cb4651461031d578063b187301f146103395761012c565b806323b872dd116100f457806323b872dd146101e95780632de38d681461020557806342842e0e14610235578063514dc8c61461025157806356bda4a2146102815761012c565b806301ffc9a714610131578063060475901461016157806306fdde031461017f578063081812fc1461019d578063095ea7b3146101cd575b600080fd5b61014b600480360381019061014691906126db565b61041f565b60405161015891906133b9565b60405180910390f35b610169610501565b6040516101769190613654565b60405180910390f35b610187610512565b60405161019491906133d4565b60405180910390f35b6101b760048036038101906101b2919061272d565b6105a4565b6040516101c49190613329565b60405180910390f35b6101e760048036038101906101e2919061269f565b610629565b005b61020360048036038101906101fe9190612599565b610741565b005b61021f600480360381019061021a919061272d565b6107a1565b60405161022c91906133d4565b60405180910390f35b61024f600480360381019061024a9190612599565b6108bf565b005b61026b6004803603810190610266919061272d565b6108df565b60405161027891906133d4565b60405180910390f35b6102896109fd565b6040516102969190613654565b60405180910390f35b6102b960048036038101906102b4919061272d565b610a06565b6040516102c69190613329565b60405180910390f35b6102e960048036038101906102e49190612534565b610ab8565b6040516102f69190613654565b60405180910390f35b610307610b70565b60405161031491906133d4565b60405180910390f35b61033760048036038101906103329190612663565b610c02565b005b610353600480360381019061034e919061272d565b610d83565b60405161036091906133d4565b60405180910390f35b610383600480360381019061037e91906125e8565b610ea1565b005b61039f600480360381019061039a919061272d565b610f03565b6040516103ac91906133d4565b60405180910390f35b6103cf60048036038101906103ca919061272d565b611021565b6040516103dc91906133d4565b60405180910390f35b6103ed611173565b005b6104096004803603810190610404919061255d565b6113b4565b60405161041691906133b9565b60405180910390f35b60007f80ac58cd000000000000000000000000000000000000000000000000000000007bffffffffffffffffffffffffffffffffffffffffffffffffffffffff1916827bffffffffffffffffffffffffffffffffffffffffffffffffffffffff191614806104ea57507f5b5e139f000000000000000000000000000000000000000000000000000000007bffffffffffffffffffffffffffffffffffffffffffffffffffffffff1916827bffffffffffffffffffffffffffffffffffffffffffffffffffffffff1916145b806104fa57506104f9826114e1565b5b9050919050565b600061050d600761154b565b905090565b606060008054610521906138f3565b80601f016020809104026020016040519081016040528092919081815260200182805461054d906138f3565b801561059a5780601f1061056f5761010080835404028352916020019161059a565b820191906000526020600020905b81548152906001019060200180831161057d57829003601f168201915b5050505050905090565b60006105af82611559565b6105ee576040517f08c379a00000000000000000000000000000000000000000000000000000000081526004016105e590613594565b60405180910390fd5b6004600083815260200190815260200160002060009054906101000a900473ffffffffffffffffffffffffffffffffffffffff169050919050565b600061063482610a06565b90508073ffffffffffffffffffffffffffffffffffffffff168373ffffffffffffffffffffffffffffffffffffffff1614156106a5576040517f08c379a000000000000000000000000000000000000000000000000000000000815260040161069c906135f4565b60405180910390fd5b8073ffffffffffffffffffffffffffffffffffffffff166106c46115c5565b73ffffffffffffffffffffffffffffffffffffffff1614806106f357506106f2816106ed6115c5565b6113b4565b5b610732576040517f08c379a0000000000000000000000000000000000000000000000000000000008152600401610729906134d4565b60405180910390fd5b61073c83836115cd565b505050565b61075261074c6115c5565b82611686565b610791576040517f08c379a000000000000000000000000000000000000000000000000000000000815260040161078890613614565b60405180910390fd5b61079c838383611764565b505050565b606060006107d56107b1846119c0565b6040516020016107c191906132c3565b604051602081830303815290604052611b6d565b9050600b80549050816107e8919061396e565b9050600b8181548110610824577f4e487b7100000000000000000000000000000000000000000000000000000000600052603260045260246000fd5b906000526020600020018054610839906138f3565b80601f0160208091040260200160405190810160405280929190818152602001828054610865906138f3565b80156108b25780601f10610887576101008083540402835291602001916108b2565b820191906000526020600020905b81548152906001019060200180831161089557829003601f168201915b5050505050915050919050565b6108da83838360405180602001604052806000815250610ea1565b505050565b606060006109136108ef846119c0565b6040516020016108ff9190613307565b604051602081830303815290604052611b6d565b9050600e8054905081610926919061396e565b9050600e8181548110610962577f4e487b7100000000000000000000000000000000000000000000000000000000600052603260045260246000fd5b906000526020600020018054610977906138f3565b80601f01602080910402602001604051908101604052809291908181526020018280546109a3906138f3565b80156109f05780601f106109c5576101008083540402835291602001916109f0565b820191906000526020600020905b8154815290600101906020018083116109d357829003601f168201915b5050505050915050919050565b60006032905090565b6000806002600084815260200190815260200160002060009054906101000a900473ffffffffffffffffffffffffffffffffffffffff169050600073ffffffffffffffffffffffffffffffffffffffff168173ffffffffffffffffffffffffffffffffffffffff161415610aaf576040517f08c379a0000000000000000000000000000000000000000000000000000000008152600401610aa690613514565b60405180910390fd5b80915050919050565b60008073ffffffffffffffffffffffffffffffffffffffff168273ffffffffffffffffffffffffffffffffffffffff161415610b29576040517f08c379a0000000000000000000000000000000000000000000000000000000008152600401610b20906134f4565b60405180910390fd5b600360008373ffffffffffffffffffffffffffffffffffffffff1673ffffffffffffffffffffffffffffffffffffffff168152602001908152602001600020549050919050565b606060018054610b7f906138f3565b80601f0160208091040260200160405190810160405280929190818152602001828054610bab906138f3565b8015610bf85780601f10610bcd57610100808354040283529160200191610bf8565b820191906000526020600020905b815481529060010190602001808311610bdb57829003601f168201915b5050505050905090565b610c0a6115c5565b73ffffffffffffffffffffffffffffffffffffffff168273ffffffffffffffffffffffffffffffffffffffff161415610c78576040517f08c379a0000000000000000000000000000000000000000000000000000000008152600401610c6f90613494565b60405180910390fd5b8060056000610c856115c5565b73ffffffffffffffffffffffffffffffffffffffff1673ffffffffffffffffffffffffffffffffffffffff16815260200190815260200160002060008473ffffffffffffffffffffffffffffffffffffffff1673ffffffffffffffffffffffffffffffffffffffff16815260200190815260200160002060006101000a81548160ff0219169083151502179055508173ffffffffffffffffffffffffffffffffffffffff16610d326115c5565b73ffffffffffffffffffffffffffffffffffffffff167f17307eab39ab6107e8899845ad3d59bd9653f200f220920489ca2b5937696c3183604051610d7791906133b9565b60405180910390a35050565b60606000610db7610d93846119c0565b604051602001610da3919061325c565b604051602081830303815290604052611b6d565b9050600c8054905081610dca919061396e565b9050600c8181548110610e06577f4e487b7100000000000000000000000000000000000000000000000000000000600052603260045260246000fd5b906000526020600020018054610e1b906138f3565b80601f0160208091040260200160405190810160405280929190818152602001828054610e47906138f3565b8015610e945780601f10610e6957610100808354040283529160200191610e94565b820191906000526020600020905b815481529060010190602001808311610e7757829003601f168201915b5050505050915050919050565b610eb2610eac6115c5565b83611686565b610ef1576040517f08c379a0000000000000000000000000000000000000000000000000000000008152600401610ee890613614565b60405180910390fd5b610efd84848484611ba0565b50505050565b60606000610f37610f13846119c0565b604051602001610f23919061323a565b604051602081830303815290604052611b6d565b9050600d8054905081610f4a919061396e565b9050600d8181548110610f86577f4e487b7100000000000000000000000000000000000000000000000000000000600052603260045260246000fd5b906000526020600020018054610f9b906138f3565b80601f0160208091040260200160405190810160405280929190818152602001828054610fc7906138f3565b80156110145780601f10610fe957610100808354040283529160200191611014565b820191906000526020600020905b815481529060010190602001808311610ff757829003601f168201915b5050505050915050919050565b606061102c82611559565b61106b576040517f08c379a000000000000000000000000000000000000000000000000000000000815260040161106290613574565b60405180910390fd5b600060066000848152602001908152602001600020805461108b906138f3565b80601f01602080910402602001604051908101604052809291908181526020018280546110b7906138f3565b80156111045780601f106110d957610100808354040283529160200191611104565b820191906000526020600020905b8154815290600101906020018083116110e757829003601f168201915b505050505090506000611115611bfc565b905060008151141561112b57819250505061116e565b60008251111561116057808260405160200161114892919061319c565b6040516020818303038152906040529250505061116e565b61116984611c13565b925050505b919050565b600061117d610501565b90506111876109fd565b81106111c8576040517f08c379a00000000000000000000000000000000000000000000000000000000081526004016111bf90613634565b60405180910390fd5b60006111d3826107a1565b905060006111e083610d83565b905060006111ed84610f03565b90506000838383604051602001611206939291906131c0565b60405160208183030381529060405290506000611222866108df565b9050600060088260098560405160200161123f94939291906131f1565b604051602081830303815290604052905060006112848461125f84611cba565b60405160200161127092919061327e565b604051602081830303815290604052611cba565b905060008160405160200161129991906132e5565b60405160208183030381529060405290506112e86040518060400160405280601581526020017f0a2d2d2d2d2d2d2d2d2d2d2d2d2d2d2d2d2d2d2d2d0000000000000000000000815250611448565b6112f181611448565b61132f6040518060400160405280601581526020017f2d2d2d2d2d2d2d2d2d2d2d2d2d2d2d2d2d2d2d2d0a0000000000000000000000815250611448565b611339338a611e78565b6113438982611e96565b61134d6007611f0a565b611370604051806060016040528060258152602001613ac9602591398a33611f20565b7febb98688741ffa4c7589bf325de30cf7becb63de567842e1ccdb6cb949fdc82c338a6040516113a1929190613390565b60405180910390a1505050505050505050565b6000600560008473ffffffffffffffffffffffffffffffffffffffff1673ffffffffffffffffffffffffffffffffffffffff16815260200190815260200160002060008373ffffffffffffffffffffffffffffffffffffffff1673ffffffffffffffffffffffffffffffffffffffff16815260200190815260200160002060009054906101000a900460ff16905092915050565b6114de8160405160240161145c91906133d4565b6040516020818303038152906040527f41304fac000000000000000000000000000000000000000000000000000000007bffffffffffffffffffffffffffffffffffffffffffffffffffffffff19166020820180517bffffffffffffffffffffffffffffffffffffffffffffffffffffffff8381831617835250505050611fbf565b50565b60007f01ffc9a7000000000000000000000000000000000000000000000000000000007bffffffffffffffffffffffffffffffffffffffffffffffffffffffff1916827bffffffffffffffffffffffffffffffffffffffffffffffffffffffff1916149050919050565b600081600001549050919050565b60008073ffffffffffffffffffffffffffffffffffffffff166002600084815260200190815260200160002060009054906101000a900473ffffffffffffffffffffffffffffffffffffffff1673ffffffffffffffffffffffffffffffffffffffff1614159050919050565b600033905090565b816004600083815260200190815260200160002060006101000a81548173ffffffffffffffffffffffffffffffffffffffff021916908373ffffffffffffffffffffffffffffffffffffffff160217905550808273ffffffffffffffffffffffffffffffffffffffff1661164083610a06565b73ffffffffffffffffffffffffffffffffffffffff167f8c5be1e5ebec7d5bd14f71427d1e84f3dd0314c0f7b2291e5b200ac8c7c3b92560405160405180910390a45050565b600061169182611559565b6116d0576040517f08c379a00000000000000000000000000000000000000000000000000000000081526004016116c7906134b4565b60405180910390fd5b60006116db83610a06565b90508073ffffffffffffffffffffffffffffffffffffffff168473ffffffffffffffffffffffffffffffffffffffff16148061174a57508373ffffffffffffffffffffffffffffffffffffffff16611732846105a4565b73ffffffffffffffffffffffffffffffffffffffff16145b8061175b575061175a81856113b4565b5b91505092915050565b8273ffffffffffffffffffffffffffffffffffffffff1661178482610a06565b73ffffffffffffffffffffffffffffffffffffffff16146117da576040517f08c379a00000000000000000000000000000000000000000000000000000000081526004016117d1906135b4565b60405180910390fd5b600073ffffffffffffffffffffffffffffffffffffffff168273ffffffffffffffffffffffffffffffffffffffff16141561184a576040517f08c379a000000000000000000000000000000000000000000000000000000000815260040161184190613474565b60405180910390fd5b611855838383611fe8565b6118606000826115cd565b6001600360008573ffffffffffffffffffffffffffffffffffffffff1673ffffffffffffffffffffffffffffffffffffffff16815260200190815260200160002060008282546118b09190613809565b925050819055506001600360008473ffffffffffffffffffffffffffffffffffffffff1673ffffffffffffffffffffffffffffffffffffffff16815260200190815260200160002060008282546119079190613728565b92505081905550816002600083815260200190815260200160002060006101000a81548173ffffffffffffffffffffffffffffffffffffffff021916908373ffffffffffffffffffffffffffffffffffffffff160217905550808273ffffffffffffffffffffffffffffffffffffffff168473ffffffffffffffffffffffffffffffffffffffff167fddf252ad1be2c89b69c2b068fc378daa952ba7f163c4a11628f55a4df523b3ef60405160405180910390a4505050565b60606000821415611a08576040518060400160405280600181526020017f30000000000000000000000000000000000000000000000000000000000000008152509050611b68565b600082905060005b60008214611a3a578080611a2390613925565b915050600a82611a33919061377e565b9150611a10565b60008167ffffffffffffffff811115611a7c577f4e487b7100000000000000000000000000000000000000000000000000000000600052604160045260246000fd5b6040519080825280601f01601f191660200182016040528015611aae5781602001600182028036833780820191505090505b5090505b60008514611b6157600182611ac79190613809565b9150600a85611ad6919061396e565b6030611ae29190613728565b60f81b818381518110611b1e577f4e487b7100000000000000000000000000000000000000000000000000000000600052603260045260246000fd5b60200101907effffffffffffffffffffffffffffffffffffffffffffffffffffffffffffff1916908160001a905350600a85611b5a919061377e565b9450611ab2565b8093505050505b919050565b600081604051602001611b809190613185565b6040516020818303038152906040528051906020012060001c9050919050565b611bab848484611764565b611bb784848484611fed565b611bf6576040517f08c379a0000000000000000000000000000000000000000000000000000000008152600401611bed90613434565b60405180910390fd5b50505050565b606060405180602001604052806000815250905090565b6060611c1e82611559565b611c5d576040517f08c379a0000000000000000000000000000000000000000000000000000000008152600401611c54906135d4565b60405180910390fd5b6000611c67611bfc565b90506000815111611c875760405180602001604052806000815250611cb2565b80611c91846119c0565b604051602001611ca292919061319c565b6040516020818303038152906040525b915050919050565b60606000825190506000811415611ce35760405180602001604052806000815250915050611e73565b60006003600283611cf49190613728565b611cfe919061377e565b6004611d0a91906137af565b90506000602082611d1b9190613728565b67ffffffffffffffff811115611d5a577f4e487b7100000000000000000000000000000000000000000000000000000000600052604160045260246000fd5b6040519080825280601f01601f191660200182016040528015611d8c5781602001600182028036833780820191505090505b5090506000604051806060016040528060408152602001613aee604091399050600181016020830160005b86811015611e305760038101905062ffffff818a015116603f8160121c168401518060081b905060ff603f83600c1c1686015116810190508060081b905060ff603f8360061c1686015116810190508060081b905060ff603f831686015116810190508060e01b90508084526004840193505050611db7565b506003860660018114611e4a5760028114611e5a57611e65565b613d3d60f01b6002830352611e65565b603d60f81b60018303525b508484525050819450505050505b919050565b611e92828260405180602001604052806000815250612184565b5050565b611e9f82611559565b611ede576040517f08c379a0000000000000000000000000000000000000000000000000000000008152600401611ed590613534565b60405180910390fd5b80600660008481526020019081526020016000209080519060200190611f059291906123c0565b505050565b6001816000016000828254019250508190555050565b611fba838383604051602401611f38939291906133f6565b6040516020818303038152906040527fe3849f79000000000000000000000000000000000000000000000000000000007bffffffffffffffffffffffffffffffffffffffffffffffffffffffff19166020820180517bffffffffffffffffffffffffffffffffffffffffffffffffffffffff8381831617835250505050611fbf565b505050565b60008151905060006a636f6e736f6c652e6c6f679050602083016000808483855afa5050505050565b505050565b600061200e8473ffffffffffffffffffffffffffffffffffffffff166121df565b15612177578373ffffffffffffffffffffffffffffffffffffffff1663150b7a026120376115c5565b8786866040518563ffffffff1660e01b81526004016120599493929190613344565b602060405180830381600087803b15801561207357600080fd5b505af19250505080156120a457506040513d601f19601f820116820180604052508101906120a19190612704565b60015b612127573d80600081146120d4576040519150601f19603f3d011682016040523d82523d6000602084013e6120d9565b606091505b5060008151141561211f576040517f08c379a000000000000000000000000000000000000000000000000000000000815260040161211690613434565b60405180910390fd5b805181602001fd5b63150b7a0260e01b7bffffffffffffffffffffffffffffffffffffffffffffffffffffffff1916817bffffffffffffffffffffffffffffffffffffffffffffffffffffffff19161491505061217c565b600190505b949350505050565b61218e83836121f2565b61219b6000848484611fed565b6121da576040517f08c379a00000000000000000000000000000000000000000000000000000000081526004016121d190613434565b60405180910390fd5b505050565b600080823b905060008111915050919050565b600073ffffffffffffffffffffffffffffffffffffffff168273ffffffffffffffffffffffffffffffffffffffff161415612262576040517f08c379a000000000000000000000000000000000000000000000000000000000815260040161225990613554565b60405180910390fd5b61226b81611559565b156122ab576040517f08c379a00000000000000000000000000000000000000000000000000000000081526004016122a290613454565b60405180910390fd5b6122b760008383611fe8565b6001600360008473ffffffffffffffffffffffffffffffffffffffff1673ffffffffffffffffffffffffffffffffffffffff16815260200190815260200160002060008282546123079190613728565b92505081905550816002600083815260200190815260200160002060006101000a81548173ffffffffffffffffffffffffffffffffffffffff021916908373ffffffffffffffffffffffffffffffffffffffff160217905550808273ffffffffffffffffffffffffffffffffffffffff16600073ffffffffffffffffffffffffffffffffffffffff167fddf252ad1be2c89b69c2b068fc378daa952ba7f163c4a11628f55a4df523b3ef60405160405180910390a45050565b8280546123cc906138f3565b90600052602060002090601f0160209004810192826123ee5760008555612435565b82601f1061240757805160ff1916838001178555612435565b82800160010185558215612435579182015b82811115612434578251825591602001919060010190612419565b5b5090506124429190612446565b5090565b5b8082111561245f576000816000905550600101612447565b5090565b6000612476612471846136a0565b61366f565b90508281526020810184848401111561248e57600080fd5b6124998482856138b1565b509392505050565b6000813590506124b081613a6c565b92915050565b6000813590506124c581613a83565b92915050565b6000813590506124da81613a9a565b92915050565b6000815190506124ef81613a9a565b92915050565b600082601f83011261250657600080fd5b8135612516848260208601612463565b91505092915050565b60008135905061252e81613ab1565b92915050565b60006020828403121561254657600080fd5b6000612554848285016124a1565b91505092915050565b6000806040838503121561257057600080fd5b600061257e858286016124a1565b925050602061258f858286016124a1565b9150509250929050565b6000806000606084860312156125ae57600080fd5b60006125bc868287016124a1565b93505060206125cd868287016124a1565b92505060406125de8682870161251f565b9150509250925092565b600080600080608085870312156125fe57600080fd5b600061260c878288016124a1565b945050602061261d878288016124a1565b935050604061262e8782880161251f565b925050606085013567ffffffffffffffff81111561264b57600080fd5b612657878288016124f5565b91505092959194509250565b6000806040838503121561267657600080fd5b6000612684858286016124a1565b9250506020612695858286016124b6565b9150509250929050565b600080604083850312156126b257600080fd5b60006126c0858286016124a1565b92505060206126d18582860161251f565b9150509250929050565b6000602082840312156126ed57600080fd5b60006126fb848285016124cb565b91505092915050565b60006020828403121561271657600080fd5b6000612724848285016124e0565b91505092915050565b60006020828403121561273f57600080fd5b600061274d8482850161251f565b91505092915050565b61275f8161383d565b82525050565b61276e8161384f565b82525050565b600061277f826136e5565b61278981856136fb565b93506127998185602086016138c0565b6127a281613a5b565b840191505092915050565b60006127b8826136f0565b6127c2818561370c565b93506127d28185602086016138c0565b6127db81613a5b565b840191505092915050565b60006127f1826136f0565b6127fb818561371d565b935061280b8185602086016138c0565b80840191505092915050565b60008154612824816138f3565b61282e818661371d565b94506001821660008114612849576001811461285a5761288d565b60ff1983168652818601935061288d565b612863856136d0565b60005b8381101561288557815481890152600182019150602081019050612866565b838801955050505b50505092915050565b60006128a360328361370c565b91507f4552433732313a207472616e7366657220746f206e6f6e20455243373231526560008301527f63656976657220696d706c656d656e74657200000000000000000000000000006020830152604082019050919050565b6000612909601c8361370c565b91507f4552433732313a20746f6b656e20616c7265616479206d696e746564000000006000830152602082019050919050565b6000612949600a8361371d565b91507f54484952445f574f5244000000000000000000000000000000000000000000006000830152600a82019050919050565b600061298960248361370c565b91507f4552433732313a207472616e7366657220746f20746865207a65726f2061646460008301527f72657373000000000000000000000000000000000000000000000000000000006020830152604082019050919050565b60006129ef60198361370c565b91507f4552433732313a20617070726f766520746f2063616c6c6572000000000000006000830152602082019050919050565b6000612a2f60638361371d565b91507f222c20226465736372697074696f6e223a20224120686967686c79206163636c60008301527f61696d656420636f6c6c656374696f6e206f6620737175617265732e222c202260208301527f696d616765223a2022646174613a696d6167652f7376672b786d6c3b6261736560408301527f36342c00000000000000000000000000000000000000000000000000000000006060830152606382019050919050565b6000612ae1600b8361371d565b91507f5345434f4e445f574f52440000000000000000000000000000000000000000006000830152600b82019050919050565b6000612b21602c8361370c565b91507f4552433732313a206f70657261746f7220717565727920666f72206e6f6e657860008301527f697374656e7420746f6b656e00000000000000000000000000000000000000006020830152604082019050919050565b6000612b87600d8361371d565b91507f3c2f746578743e3c2f7376673e000000000000000000000000000000000000006000830152600d82019050919050565b6000612bc760388361370c565b91507f4552433732313a20617070726f76652063616c6c6572206973206e6f74206f7760008301527f6e6572206e6f7220617070726f76656420666f7220616c6c00000000000000006020830152604082019050919050565b6000612c2d602a8361370c565b91507f4552433732313a2062616c616e636520717565727920666f7220746865207a6560008301527f726f2061646472657373000000000000000000000000000000000000000000006020830152604082019050919050565b6000612c9360298361370c565b91507f4552433732313a206f776e657220717565727920666f72206e6f6e657869737460008301527f656e7420746f6b656e00000000000000000000000000000000000000000000006020830152604082019050919050565b6000612cf9602e8361370c565b91507f45524337323155524953746f726167653a2055524920736574206f66206e6f6e60008301527f6578697374656e7420746f6b656e0000000000000000000000000000000000006020830152604082019050919050565b6000612d5f60028361371d565b91507f227d0000000000000000000000000000000000000000000000000000000000006000830152600282019050919050565b6000612d9f60208361370c565b91507f4552433732313a206d696e7420746f20746865207a65726f20616464726573736000830152602082019050919050565b6000612ddf60318361370c565b91507f45524337323155524953746f726167653a2055524920717565727920666f722060008301527f6e6f6e6578697374656e7420746f6b656e0000000000000000000000000000006020830152604082019050919050565b6000612e45602c8361370c565b91507f4552433732313a20617070726f76656420717565727920666f72206e6f6e657860008301527f697374656e7420746f6b656e00000000000000000000000000000000000000006020830152604082019050919050565b6000612eab60298361370c565b91507f4552433732313a207472616e73666572206f6620746f6b656e2074686174206960008301527f73206e6f74206f776e00000000000000000000000000000000000000000000006020830152604082019050919050565b6000612f11602f8361370c565b91507f4552433732314d657461646174613a2055524920717565727920666f72206e6f60008301527f6e6578697374656e7420746f6b656e00000000000000000000000000000000006020830152604082019050919050565b6000612f77600a8361371d565b91507f7b226e616d65223a2022000000000000000000000000000000000000000000006000830152600a82019050919050565b6000612fb760218361370c565b91507f4552433732313a20617070726f76616c20746f2063757272656e74206f776e6560008301527f72000000000000000000000000000000000000000000000000000000000000006020830152604082019050919050565b600061301d600a8361371d565b91507f46495253545f574f5244000000000000000000000000000000000000000000006000830152600a82019050919050565b600061305d601d8361371d565b91507f646174613a6170706c69636174696f6e2f6a736f6e3b6261736536342c0000006000830152601d82019050919050565b600061309d60318361370c565b91507f4552433732313a207472616e736665722063616c6c6572206973206e6f74206f60008301527f776e6572206e6f7220617070726f7665640000000000000000000000000000006020830152604082019050919050565b6000613103601b8361370c565b91507f546f74616c206e756d626572206f66204e465473204d696e74656400000000006000830152602082019050919050565b600061314360058361371d565b91507f434f4c4f520000000000000000000000000000000000000000000000000000006000830152600582019050919050565b61317f816138a7565b82525050565b600061319182846127e6565b915081905092915050565b60006131a882856127e6565b91506131b482846127e6565b91508190509392505050565b60006131cc82866127e6565b91506131d882856127e6565b91506131e482846127e6565b9150819050949350505050565b60006131fd8287612817565b915061320982866127e6565b91506132158285612817565b915061322182846127e6565b915061322c82612b7a565b915081905095945050505050565b60006132458261293c565b915061325182846127e6565b915081905092915050565b600061326782612ad4565b915061327382846127e6565b915081905092915050565b600061328982612f6a565b915061329582856127e6565b91506132a082612a22565b91506132ac82846127e6565b91506132b782612d52565b91508190509392505050565b60006132ce82613010565b91506132da82846127e6565b915081905092915050565b60006132f082613050565b91506132fc82846127e6565b915081905092915050565b600061331282613136565b915061331e82846127e6565b915081905092915050565b600060208201905061333e6000830184612756565b92915050565b60006080820190506133596000830187612756565b6133666020830186612756565b6133736040830185613176565b81810360608301526133858184612774565b905095945050505050565b60006040820190506133a56000830185612756565b6133b26020830184613176565b9392505050565b60006020820190506133ce6000830184612765565b92915050565b600060208201905081810360008301526133ee81846127ad565b905092915050565b6000606082019050818103600083015261341081866127ad565b905061341f6020830185613176565b61342c6040830184612756565b949350505050565b6000602082019050818103600083015261344d81612896565b9050919050565b6000602082019050818103600083015261346d816128fc565b9050919050565b6000602082019050818103600083015261348d8161297c565b9050919050565b600060208201905081810360008301526134ad816129e2565b9050919050565b600060208201905081810360008301526134cd81612b14565b9050919050565b600060208201905081810360008301526134ed81612bba565b9050919050565b6000602082019050818103600083015261350d81612c20565b9050919050565b6000602082019050818103600083015261352d81612c86565b9050919050565b6000602082019050818103600083015261354d81612cec565b9050919050565b6000602082019050818103600083015261356d81612d92565b9050919050565b6000602082019050818103600083015261358d81612dd2565b9050919050565b600060208201905081810360008301526135ad81612e38565b9050919050565b600060208201905081810360008301526135cd81612e9e565b9050919050565b600060208201905081810360008301526135ed81612f04565b9050919050565b6000602082019050818103600083015261360d81612faa565b9050919050565b6000602082019050818103600083015261362d81613090565b9050919050565b6000602082019050818103600083015261364d816130f6565b9050919050565b60006020820190506136696000830184613176565b92915050565b6000604051905081810181811067ffffffffffffffff8211171561369657613695613a2c565b5b8060405250919050565b600067ffffffffffffffff8211156136bb576136ba613a2c565b5b601f19601f8301169050602081019050919050565b60008190508160005260206000209050919050565b600081519050919050565b600081519050919050565b600082825260208201905092915050565b600082825260208201905092915050565b600081905092915050565b6000613733826138a7565b915061373e836138a7565b9250827fffffffffffffffffffffffffffffffffffffffffffffffffffffffffffffffff038211156137735761377261399f565b5b828201905092915050565b6000613789826138a7565b9150613794836138a7565b9250826137a4576137a36139ce565b5b828204905092915050565b60006137ba826138a7565b91506137c5836138a7565b9250817fffffffffffffffffffffffffffffffffffffffffffffffffffffffffffffffff04831182151516156137fe576137fd61399f565b5b828202905092915050565b6000613814826138a7565b915061381f836138a7565b9250828210156138325761383161399f565b5b828203905092915050565b600061384882613887565b9050919050565b60008115159050919050565b60007fffffffff0000000000000000000000000000000000000000000000000000000082169050919050565b600073ffffffffffffffffffffffffffffffffffffffff82169050919050565b6000819050919050565b82818337600083830152505050565b60005b838110156138de5780820151818401526020810190506138c3565b838111156138ed576000848401525b50505050565b6000600282049050600182168061390b57607f821691505b6020821081141561391f5761391e6139fd565b5b50919050565b6000613930826138a7565b91507fffffffffffffffffffffffffffffffffffffffffffffffffffffffffffffffff8214156139635761396261399f565b5b600182019050919050565b6000613979826138a7565b9150613984836138a7565b925082613994576139936139ce565b5b828206905092915050565b7f4e487b7100000000000000000000000000000000000000000000000000000000600052601160045260246000fd5b7f4e487b7100000000000000000000000000000000000000000000000000000000600052601260045260246000fd5b7f4e487b7100000000000000000000000000000000000000000000000000000000600052602260045260246000fd5b7f4e487b7100000000000000000000000000000000000000000000000000000000600052604160045260246000fd5b6000601f19601f8301169050919050565b613a758161383d565b8114613a8057600080fd5b50565b613a8c8161384f565b8114613a9757600080fd5b50565b613aa38161385b565b8114613aae57600080fd5b50565b613aba816138a7565b8114613ac557600080fd5b5056fe416e204e465420772f20494420257320686173206265656e206d696e74656420746f2025734142434445464748494a4b4c4d4e4f505152535455565758595a6162636465666768696a6b6c6d6e6f707172737475767778797a303132333435363738392b2fa2646970667358221220ad9d19f73197c034c2dc98e0ba6f77cf2fbfd1a93043d7e5b31cf0a79d7efeb764736f6c634300080000333c73766720786d6c6e733d27687474703a2f2f7777772e77332e6f72672f323030302f73766727207072657365727665417370656374526174696f3d27784d696e594d696e206d656574272076696577426f783d273020302033353020333530273e3c7374796c653e2e62617365207b2066696c6c3a2077686974653b20666f6e742d66616d696c793a2073657269663b20666f6e742d73697a653a20323470783b207d3c2f7374796c653e3c726563742077696474683d273130302527206865696768743d2731303025272066696c6c3d27626c61636b27202f3e3c7465787420783d273530252720793d273530252720636c6173733d27626173652720646f6d696e616e742d626173656c696e653d276d6964646c652720746578742d616e63686f723d276d6964646c65273e3c73766720786d6c6e733d27687474703a2f2f7777772e77332e6f72672f323030302f73766727207072657365727665417370656374526174696f3d27784d696e594d696e206d656574272076696577426f783d273020302033353020333530273e3c7374796c653e2e62617365207b2066696c6c3a2077686974653b20666f6e742d66616d696c793a2073657269663b20666f6e742d73697a653a20323470783b207d3c2f7374796c653e3c726563742077696474683d273130302527206865696768743d2731303025272066696c6c3d27272f3e3c7465787420783d273530252720793d273530252720636c6173733d27626173652720646f6d696e616e742d626173656c696e653d276d6964646c652720746578742d616e63686f723d276d6964646c65273e",
  "linkReferences": {},
  "deployedLinkReferences": {}
}